{
  "_format": "hh-sol-artifact-1",
  "contractName": "Curve",
  "sourceName": "contracts/Curve.sol",
  "abi": [
    {
      "inputs": [
        {
          "internalType": "address payable",
          "name": "_creator",
          "type": "address"
        }
      ],
      "stateMutability": "nonpayable",
      "type": "constructor"
    },
    {
      "inputs": [
        {
          "internalType": "uint256",
          "name": "tokenId",
          "type": "uint256"
        }
      ],
      "name": "burn",
      "outputs": [],
      "stateMutability": "nonpayable",
      "type": "function"
    },
    {
      "inputs": [],
      "name": "creator",
      "outputs": [
        {
          "internalType": "address payable",
          "name": "",
          "type": "address"
        }
      ],
      "stateMutability": "view",
      "type": "function"
    },
    {
      "inputs": [],
      "name": "getCurrentPriceToBurn",
      "outputs": [
        {
          "internalType": "uint256",
          "name": "",
          "type": "uint256"
        }
      ],
      "stateMutability": "view",
      "type": "function"
    },
    {
      "inputs": [],
      "name": "getCurrentPriceToMint",
      "outputs": [
        {
          "internalType": "uint256",
          "name": "",
          "type": "uint256"
        }
      ],
      "stateMutability": "view",
      "type": "function"
    },
    {
      "inputs": [],
      "name": "getCurrentSupply",
      "outputs": [
        {
          "internalType": "uint256",
          "name": "",
          "type": "uint256"
        }
      ],
      "stateMutability": "view",
      "type": "function"
    },
    {
      "inputs": [],
      "name": "getReserveCut",
      "outputs": [
        {
          "internalType": "uint256",
          "name": "",
          "type": "uint256"
        }
      ],
      "stateMutability": "view",
      "type": "function"
    },
    {
      "inputs": [],
      "name": "initBurnPrice",
      "outputs": [
        {
          "internalType": "uint256",
          "name": "",
          "type": "uint256"
        }
      ],
      "stateMutability": "view",
      "type": "function"
    },
    {
      "inputs": [],
      "name": "initMintPrice",
      "outputs": [
        {
          "internalType": "uint256",
          "name": "",
          "type": "uint256"
        }
      ],
      "stateMutability": "view",
      "type": "function"
    },
    {
      "inputs": [
        {
          "internalType": "uint256",
          "name": "tokenId",
          "type": "uint256"
        }
      ],
      "name": "mint",
      "outputs": [],
      "stateMutability": "payable",
      "type": "function"
    },
    {
      "inputs": [],
      "name": "neolastics",
      "outputs": [
        {
          "internalType": "contract ERC721",
          "name": "",
          "type": "address"
        }
      ],
      "stateMutability": "view",
      "type": "function"
    },
    {
      "inputs": [],
      "name": "reserve",
      "outputs": [
        {
          "internalType": "uint256",
          "name": "",
          "type": "uint256"
        }
      ],
      "stateMutability": "view",
      "type": "function"
    }
  ],
  "bytecode": "0x608060405266038d7ea4c68000600055660388f27d8d300060015534801561002657600080fd5b506040516140583803806140588339818101604052602081101561004957600080fd5b810190808051906020019092919050505080600360006101000a81548173ffffffffffffffffffffffffffffffffffffffff021916908373ffffffffffffffffffffffffffffffffffffffff16021790555060006002819055506040516100af90610187565b8080602001806020018381038352600a8152602001807f4e656f6c61737469637300000000000000000000000000000000000000000000815250602001838103825260038152602001807f4e4c53000000000000000000000000000000000000000000000000000000000081525060200192505050604051809103906000f080158015610140573d6000803e3d6000fd5b50600460006101000a81548173ffffffffffffffffffffffffffffffffffffffff021916908373ffffffffffffffffffffffffffffffffffffffff16021790555050610194565b61343680610c2283390190565b610a7f806101a36000396000f3fe60806040526004361061009c5760003560e01c8063a0712d6811610064578063a0712d681461019e578063c96b6544146101cc578063cd3293de146101f7578063d441426a14610222578063e46287451461024d578063e57567db146102785761009c565b806302d05d3f146100a15780631649229f146100e25780632e8ad69f1461010d57806342966c68146101385780634f3e1efc14610173575b600080fd5b3480156100ad57600080fd5b506100b66102b9565b604051808273ffffffffffffffffffffffffffffffffffffffff16815260200191505060405180910390f35b3480156100ee57600080fd5b506100f76102df565b6040518082815260200191505060405180910390f35b34801561011957600080fd5b506101226102e5565b6040518082815260200191505060405180910390f35b34801561014457600080fd5b506101716004803603602081101561015b57600080fd5b81019080803590602001909291905050506102eb565b005b34801561017f57600080fd5b50610188610408565b6040518082815260200191505060405180910390f35b6101ca600480360360208110156101b457600080fd5b81019080803590602001909291905050506104b2565b005b3480156101d857600080fd5b506101e1610771565b6040518082815260200191505060405180910390f35b34801561020357600080fd5b5061020c6107ad565b6040518082815260200191505060405180910390f35b34801561022e57600080fd5b506102376107b3565b6040518082815260200191505060405180910390f35b34801561025957600080fd5b506102626107db565b6040518082815260200191505060405180910390f35b34801561028457600080fd5b5061028d6107ea565b604051808273ffffffffffffffffffffffffffffffffffffffff16815260200191505060405180910390f35b600360009054906101000a900473ffffffffffffffffffffffffffffffffffffffff1681565b60005481565b60015481565b60006102f56107b3565b9050600460009054906101000a900473ffffffffffffffffffffffffffffffffffffffff1673ffffffffffffffffffffffffffffffffffffffff16639dc29fac33846040518363ffffffff1660e01b8152600401808373ffffffffffffffffffffffffffffffffffffffff16815260200182815260200192505050600060405180830381600087803b15801561038a57600080fd5b505af115801561039e573d6000803e3d6000fd5b505050506103b78160025461081090919063ffffffff16565b6002819055503373ffffffffffffffffffffffffffffffffffffffff166108fc829081150290604051600060405180830381858888f19350505050158015610403573d6000803e3d6000fd5b505050565b6000600460009054906101000a900473ffffffffffffffffffffffffffffffffffffffff1673ffffffffffffffffffffffffffffffffffffffff166318160ddd6040518163ffffffff1660e01b815260040160206040518083038186803b15801561047257600080fd5b505afa158015610486573d6000803e3d6000fd5b505050506040513d602081101561049c57600080fd5b8101908080519060200190929190505050905090565b60003411610528576040517f08c379a000000000000000000000000000000000000000000000000000000000815260040180806020018281038252600e8152602001807f433a204e6f204554482073656e7400000000000000000000000000000000000081525060200191505060405180910390fd5b6000610532610771565b9050803410156105aa576040517f08c379a00000000000000000000000000000000000000000000000000000000081526004018080602001828103825260168152602001807f433a204e6f7420656e6f756768204554482073656e740000000000000000000081525060200191505060405180910390fd5b600460009054906101000a900473ffffffffffffffffffffffffffffffffffffffff1673ffffffffffffffffffffffffffffffffffffffff166340c10f1933846040518363ffffffff1660e01b8152600401808373ffffffffffffffffffffffffffffffffffffffff16815260200182815260200192505050600060405180830381600087803b15801561063d57600080fd5b505af1158015610651573d6000803e3d6000fd5b50505050600061065f6107db565b90506106768160025461085a90919063ffffffff16565b600281905550600360009054906101000a900473ffffffffffffffffffffffffffffffffffffffff1673ffffffffffffffffffffffffffffffffffffffff166108fc6106cb838561081090919063ffffffff16565b9081150290604051600060405180830381858888f193505050501580156106f6573d6000803e3d6000fd5b50600061070c833461081090919063ffffffff16565b111561076c573373ffffffffffffffffffffffffffffffffffffffff166108fc61073f843461081090919063ffffffff16565b9081150290604051600060405180830381858888f1935050505015801561076a573d6000803e3d6000fd5b505b505050565b6000806107a4610793600054610785610408565b6108e290919063ffffffff16565b60005461085a90919063ffffffff16565b90508091505090565b60025481565b6000806107d26001546107c4610408565b6108e290919063ffffffff16565b90508091505090565b60006107e56107b3565b905090565b600460009054906101000a900473ffffffffffffffffffffffffffffffffffffffff1681565b600061085283836040518060400160405280601e81526020017f536166654d6174683a207375627472616374696f6e206f766572666c6f770000815250610968565b905092915050565b6000808284019050838110156108d8576040517f08c379a000000000000000000000000000000000000000000000000000000000815260040180806020018281038252601b8152602001807f536166654d6174683a206164646974696f6e206f766572666c6f77000000000081525060200191505060405180910390fd5b8091505092915050565b6000808314156108f55760009050610962565b600082840290508284828161090657fe5b041461095d576040517f08c379a0000000000000000000000000000000000000000000000000000000008152600401808060200182810382526021815260200180610a296021913960400191505060405180910390fd5b809150505b92915050565b6000838311158290610a15576040517f08c379a00000000000000000000000000000000000000000000000000000000081526004018080602001828103825283818151815260200191508051906020019080838360005b838110156109da5780820151818401526020810190506109bf565b50505050905090810190601f168015610a075780820380516001836020036101000a031916815260200191505b509250505060405180910390fd5b506000838503905080915050939250505056fe536166654d6174683a206d756c7469706c69636174696f6e206f766572666c6f77a2646970667358221220f5c003e9b86435645c26ac1a059b4d51880ce921bf4ccee6e22bfb79b754b44b64736f6c6343000703003360806040523480156200001157600080fd5b506040516200343638038062003436833981810160405260408110156200003757600080fd5b81019080805160405193929190846401000000008211156200005857600080fd5b838201915060208201858111156200006f57600080fd5b82518660018202830111640100000000821117156200008d57600080fd5b8083526020830192505050908051906020019080838360005b83811015620000c3578082015181840152602081019050620000a6565b50505050905090810190601f168015620000f15780820380516001836020036101000a031916815260200191505b50604052602001805160405193929190846401000000008211156200011557600080fd5b838201915060208201858111156200012c57600080fd5b82518660018202830111640100000000821117156200014a57600080fd5b8083526020830192505050908051906020019080838360005b838110156200018057808201518184015260208101905062000163565b50505050905090810190601f168015620001ae5780820380516001836020036101000a031916815260200191505b50604052505050620001cd6301ffc9a760e01b620002d660201b60201c565b8160069080519060200190620001e5929190620003fb565b508060079080519060200190620001fe929190620003fb565b50620002456040518060400160405280602081526020017f68747470733a2f2f6e656f6c6173746963732e636f6d2f6d657461646174612f815250620003df60201b60201c565b33600a60006101000a81548173ffffffffffffffffffffffffffffffffffffffff021916908373ffffffffffffffffffffffffffffffffffffffff1602179055506200029e6380ac58cd60e01b620002d660201b60201c565b620002b6635b5e139f60e01b620002d660201b60201c565b620002ce63780e9d6360e01b620002d660201b60201c565b5050620004a1565b63ffffffff60e01b817bffffffffffffffffffffffffffffffffffffffffffffffffffffffff1916141562000373576040517f08c379a000000000000000000000000000000000000000000000000000000000815260040180806020018281038252601c8152602001807f4552433136353a20696e76616c696420696e746572666163652069640000000081525060200191505060405180910390fd5b6001600080837bffffffffffffffffffffffffffffffffffffffffffffffffffffffff19167bffffffffffffffffffffffffffffffffffffffffffffffffffffffff1916815260200190815260200160002060006101000a81548160ff02191690831515021790555050565b8060099080519060200190620003f7929190620003fb565b5050565b828054600181600116156101000203166002900490600052602060002090601f016020900481019282601f106200043e57805160ff19168380011785556200046f565b828001600101855582156200046f579182015b828111156200046e57825182559160200191906001019062000451565b5b5090506200047e919062000482565b5090565b5b808211156200049d57600081600090555060010162000483565b5090565b612f8580620004b16000396000f3fe608060405234801561001057600080fd5b506004361061012c5760003560e01c80636352211e116100ad5780639dc29fac116100715780639dc29fac14610693578063a22cb465146106e1578063b88d4fde14610731578063c87b56dd14610836578063e985e9c5146108dd5761012c565b80636352211e146104a95780636c0360eb1461050157806370a08231146105845780637165485d146105dc57806395d89b41146106105761012c565b806323b872dd116100f457806323b872dd146102db5780632f745c591461034957806340c10f19146103ab57806342842e0e146103f95780634f6ccce7146104675761012c565b806301ffc9a71461013157806306fdde0314610194578063081812fc14610217578063095ea7b31461026f57806318160ddd146102bd575b600080fd5b61017c6004803603602081101561014757600080fd5b8101908080357bffffffffffffffffffffffffffffffffffffffffffffffffffffffff19169060200190929190505050610957565b60405180821515815260200191505060405180910390f35b61019c6109be565b6040518080602001828103825283818151815260200191508051906020019080838360005b838110156101dc5780820151818401526020810190506101c1565b50505050905090810190601f1680156102095780820380516001836020036101000a031916815260200191505b509250505060405180910390f35b6102436004803603602081101561022d57600080fd5b8101908080359060200190929190505050610a60565b604051808273ffffffffffffffffffffffffffffffffffffffff16815260200191505060405180910390f35b6102bb6004803603604081101561028557600080fd5b81019080803573ffffffffffffffffffffffffffffffffffffffff16906020019092919080359060200190929190505050610afb565b005b6102c5610c31565b6040518082815260200191505060405180910390f35b610347600480360360608110156102f157600080fd5b81019080803573ffffffffffffffffffffffffffffffffffffffff169060200190929190803573ffffffffffffffffffffffffffffffffffffffff16906020019092919080359060200190929190505050610c42565b005b6103956004803603604081101561035f57600080fd5b81019080803573ffffffffffffffffffffffffffffffffffffffff16906020019092919080359060200190929190505050610cb1565b6040518082815260200191505060405180910390f35b6103f7600480360360408110156103c157600080fd5b81019080803573ffffffffffffffffffffffffffffffffffffffff16906020019092919080359060200190929190505050610d0c565b005b6104656004803603606081101561040f57600080fd5b81019080803573ffffffffffffffffffffffffffffffffffffffff169060200190929190803573ffffffffffffffffffffffffffffffffffffffff16906020019092919080359060200190929190505050610e39565b005b6104936004803603602081101561047d57600080fd5b8101908080359060200190929190505050610e59565b6040518082815260200191505060405180910390f35b6104d5600480360360208110156104bf57600080fd5b8101908080359060200190929190505050610e7c565b604051808273ffffffffffffffffffffffffffffffffffffffff16815260200191505060405180910390f35b610509610eb3565b6040518080602001828103825283818151815260200191508051906020019080838360005b8381101561054957808201518184015260208101905061052e565b50505050905090810190601f1680156105765780820380516001836020036101000a031916815260200191505b509250505060405180910390f35b6105c66004803603602081101561059a57600080fd5b81019080803573ffffffffffffffffffffffffffffffffffffffff169060200190929190505050610f55565b6040518082815260200191505060405180910390f35b6105e461102a565b604051808273ffffffffffffffffffffffffffffffffffffffff16815260200191505060405180910390f35b610618611050565b6040518080602001828103825283818151815260200191508051906020019080838360005b8381101561065857808201518184015260208101905061063d565b50505050905090810190601f1680156106855780820380516001836020036101000a031916815260200191505b509250505060405180910390f35b6106df600480360360408110156106a957600080fd5b81019080803573ffffffffffffffffffffffffffffffffffffffff169060200190929190803590602001909291905050506110f2565b005b61072f600480360360408110156106f757600080fd5b81019080803573ffffffffffffffffffffffffffffffffffffffff169060200190929190803515159060200190929190505050611231565b005b6108346004803603608081101561074757600080fd5b81019080803573ffffffffffffffffffffffffffffffffffffffff169060200190929190803573ffffffffffffffffffffffffffffffffffffffff16906020019092919080359060200190929190803590602001906401000000008111156107ae57600080fd5b8201836020820111156107c057600080fd5b803590602001918460018302840111640100000000831117156107e257600080fd5b91908080601f016020809104026020016040519081016040528093929190818152602001838380828437600081840152601f19601f8201169050808301925050505050505091929192905050506113d2565b005b6108626004803603602081101561084c57600080fd5b8101908080359060200190929190505050611443565b6040518080602001828103825283818151815260200191508051906020019080838360005b838110156108a2578082015181840152602081019050610887565b50505050905090810190601f1680156108cf5780820380516001836020036101000a031916815260200191505b509250505060405180910390f35b61093f600480360360408110156108f357600080fd5b81019080803573ffffffffffffffffffffffffffffffffffffffff169060200190929190803573ffffffffffffffffffffffffffffffffffffffff16906020019092919050505061172c565b60405180821515815260200191505060405180910390f35b6000806000837bffffffffffffffffffffffffffffffffffffffffffffffffffffffff19167bffffffffffffffffffffffffffffffffffffffffffffffffffffffff1916815260200190815260200160002060009054906101000a900460ff169050919050565b606060068054600181600116156101000203166002900480601f016020809104026020016040519081016040528092919081815260200182805460018160011615610100020316600290048015610a565780601f10610a2b57610100808354040283529160200191610a56565b820191906000526020600020905b815481529060010190602001808311610a3957829003601f168201915b5050505050905090565b6000610a6b826117c0565b610ac0576040517f08c379a000000000000000000000000000000000000000000000000000000000815260040180806020018281038252602c815260200180612e57602c913960400191505060405180910390fd5b6004600083815260200190815260200160002060009054906101000a900473ffffffffffffffffffffffffffffffffffffffff169050919050565b6000610b0682610e7c565b90508073ffffffffffffffffffffffffffffffffffffffff168373ffffffffffffffffffffffffffffffffffffffff161415610b8d576040517f08c379a0000000000000000000000000000000000000000000000000000000008152600401808060200182810382526021815260200180612efe6021913960400191505060405180910390fd5b8073ffffffffffffffffffffffffffffffffffffffff163373ffffffffffffffffffffffffffffffffffffffff161480610bcd5750610bcc813361172c565b5b610c22576040517f08c379a0000000000000000000000000000000000000000000000000000000008152600401808060200182810382526038815260200180612d896038913960400191505060405180910390fd5b610c2c83836117dd565b505050565b6000610c3d6002611896565b905090565b610c4c33826118ab565b610ca1576040517f08c379a0000000000000000000000000000000000000000000000000000000008152600401808060200182810382526031815260200180612f1f6031913960400191505060405180910390fd5b610cac83838361199f565b505050565b6000610d0482600160008673ffffffffffffffffffffffffffffffffffffffff1673ffffffffffffffffffffffffffffffffffffffff168152602001908152602001600020611bd790919063ffffffff16565b905092915050565b600a60009054906101000a900473ffffffffffffffffffffffffffffffffffffffff1673ffffffffffffffffffffffffffffffffffffffff163373ffffffffffffffffffffffffffffffffffffffff1614610db2576040517f08c379a0000000000000000000000000000000000000000000000000000000008152600401808060200182810382526023815260200180612e836023913960400191505060405180910390fd5b621dcd64811115610e2b576040517f08c379a000000000000000000000000000000000000000000000000000000000815260040180806020018281038252601b8152602001807f4e454f4c4153544943533a20496e76616c696420536565642f4944000000000081525060200191505060405180910390fd5b610e358282611bf1565b5050565b610e54838383604051806020016040528060008152506113d2565b505050565b600080610e70836002611dd990919063ffffffff16565b50905080915050919050565b6000610eac82604051806060016040528060298152602001612deb602991396002611e059092919063ffffffff16565b9050919050565b606060098054600181600116156101000203166002900480601f016020809104026020016040519081016040528092919081815260200182805460018160011615610100020316600290048015610f4b5780601f10610f2057610100808354040283529160200191610f4b565b820191906000526020600020905b815481529060010190602001808311610f2e57829003601f168201915b5050505050905090565b60008073ffffffffffffffffffffffffffffffffffffffff168273ffffffffffffffffffffffffffffffffffffffff161415610fdc576040517f08c379a000000000000000000000000000000000000000000000000000000000815260040180806020018281038252602a815260200180612dc1602a913960400191505060405180910390fd5b611023600160008473ffffffffffffffffffffffffffffffffffffffff1673ffffffffffffffffffffffffffffffffffffffff168152602001908152602001600020611e24565b9050919050565b600a60009054906101000a900473ffffffffffffffffffffffffffffffffffffffff1681565b606060078054600181600116156101000203166002900480601f0160208091040260200160405190810160405280929190818152602001828054600181600116156101000203166002900480156110e85780601f106110bd576101008083540402835291602001916110e8565b820191906000526020600020905b8154815290600101906020018083116110cb57829003601f168201915b5050505050905090565b600a60009054906101000a900473ffffffffffffffffffffffffffffffffffffffff1673ffffffffffffffffffffffffffffffffffffffff163373ffffffffffffffffffffffffffffffffffffffff1614611198576040517f08c379a0000000000000000000000000000000000000000000000000000000008152600401808060200182810382526023815260200180612cf06023913960400191505060405180910390fd5b6111a181610e7c565b73ffffffffffffffffffffffffffffffffffffffff168273ffffffffffffffffffffffffffffffffffffffff1614611224576040517f08c379a0000000000000000000000000000000000000000000000000000000008152600401808060200182810382526021815260200180612e366021913960400191505060405180910390fd5b61122d81611e39565b5050565b3373ffffffffffffffffffffffffffffffffffffffff168273ffffffffffffffffffffffffffffffffffffffff1614156112d3576040517f08c379a00000000000000000000000000000000000000000000000000000000081526004018080602001828103825260198152602001807f4552433732313a20617070726f766520746f2063616c6c65720000000000000081525060200191505060405180910390fd5b80600560003373ffffffffffffffffffffffffffffffffffffffff1673ffffffffffffffffffffffffffffffffffffffff16815260200190815260200160002060008473ffffffffffffffffffffffffffffffffffffffff1673ffffffffffffffffffffffffffffffffffffffff16815260200190815260200160002060006101000a81548160ff0219169083151502179055508173ffffffffffffffffffffffffffffffffffffffff163373ffffffffffffffffffffffffffffffffffffffff167f17307eab39ab6107e8899845ad3d59bd9653f200f220920489ca2b5937696c318360405180821515815260200191505060405180910390a35050565b6113dc33836118ab565b611431576040517f08c379a0000000000000000000000000000000000000000000000000000000008152600401808060200182810382526031815260200180612f1f6031913960400191505060405180910390fd5b61143d84848484611f67565b50505050565b606061144e826117c0565b6114a3576040517f08c379a000000000000000000000000000000000000000000000000000000000815260040180806020018281038252602f815260200180612ecf602f913960400191505060405180910390fd5b6060600860008481526020019081526020016000208054600181600116156101000203166002900480601f01602080910402602001604051908101604052809291908181526020018280546001816001161561010002031660029004801561154c5780601f106115215761010080835404028352916020019161154c565b820191906000526020600020905b81548152906001019060200180831161152f57829003601f168201915b5050505050905060006009805460018160011615610100020316600290049050141561157b5780915050611727565b6000815111156116545760098160405160200180838054600181600116156101000203166002900480156115e65780601f106115c45761010080835404028352918201916115e6565b820191906000526020600020905b8154815290600101906020018083116115d2575b505082805190602001908083835b6020831061161757805182526020820191506020810190506020830392506115f4565b6001836020036101000a03801982511681845116808217855250505050505090500192505050604051602081830303815290604052915050611727565b600961165f84611fd9565b60405160200180838054600181600116156101000203166002900480156116bd5780601f1061169b5761010080835404028352918201916116bd565b820191906000526020600020905b8154815290600101906020018083116116a9575b505082805190602001908083835b602083106116ee57805182526020820191506020810190506020830392506116cb565b6001836020036101000a038019825116818451168082178552505050505050905001925050506040516020818303038152906040529150505b919050565b6000600560008473ffffffffffffffffffffffffffffffffffffffff1673ffffffffffffffffffffffffffffffffffffffff16815260200190815260200160002060008373ffffffffffffffffffffffffffffffffffffffff1673ffffffffffffffffffffffffffffffffffffffff16815260200190815260200160002060009054906101000a900460ff16905092915050565b60006117d682600261212090919063ffffffff16565b9050919050565b816004600083815260200190815260200160002060006101000a81548173ffffffffffffffffffffffffffffffffffffffff021916908373ffffffffffffffffffffffffffffffffffffffff160217905550808273ffffffffffffffffffffffffffffffffffffffff1661185083610e7c565b73ffffffffffffffffffffffffffffffffffffffff167f8c5be1e5ebec7d5bd14f71427d1e84f3dd0314c0f7b2291e5b200ac8c7c3b92560405160405180910390a45050565b60006118a48260000161213a565b9050919050565b60006118b6826117c0565b61190b576040517f08c379a000000000000000000000000000000000000000000000000000000000815260040180806020018281038252602c815260200180612d5d602c913960400191505060405180910390fd5b600061191683610e7c565b90508073ffffffffffffffffffffffffffffffffffffffff168473ffffffffffffffffffffffffffffffffffffffff16148061198557508373ffffffffffffffffffffffffffffffffffffffff1661196d84610a60565b73ffffffffffffffffffffffffffffffffffffffff16145b806119965750611995818561172c565b5b91505092915050565b8273ffffffffffffffffffffffffffffffffffffffff166119bf82610e7c565b73ffffffffffffffffffffffffffffffffffffffff1614611a2b576040517f08c379a0000000000000000000000000000000000000000000000000000000008152600401808060200182810382526029815260200180612ea66029913960400191505060405180910390fd5b600073ffffffffffffffffffffffffffffffffffffffff168273ffffffffffffffffffffffffffffffffffffffff161415611ab1576040517f08c379a0000000000000000000000000000000000000000000000000000000008152600401808060200182810382526024815260200180612d136024913960400191505060405180910390fd5b611abc6000826117dd565b611b0d81600160008673ffffffffffffffffffffffffffffffffffffffff1673ffffffffffffffffffffffffffffffffffffffff16815260200190815260200160002061214b90919063ffffffff16565b50611b5f81600160008573ffffffffffffffffffffffffffffffffffffffff1673ffffffffffffffffffffffffffffffffffffffff16815260200190815260200160002061216590919063ffffffff16565b50611b768183600261217f9092919063ffffffff16565b50808273ffffffffffffffffffffffffffffffffffffffff168473ffffffffffffffffffffffffffffffffffffffff167fddf252ad1be2c89b69c2b068fc378daa952ba7f163c4a11628f55a4df523b3ef60405160405180910390a4505050565b6000611be683600001836121b4565b60001c905092915050565b600073ffffffffffffffffffffffffffffffffffffffff168273ffffffffffffffffffffffffffffffffffffffff161415611c94576040517f08c379a00000000000000000000000000000000000000000000000000000000081526004018080602001828103825260208152602001807f4552433732313a206d696e7420746f20746865207a65726f206164647265737381525060200191505060405180910390fd5b611c9d816117c0565b15611d10576040517f08c379a000000000000000000000000000000000000000000000000000000000815260040180806020018281038252601c8152602001807f4552433732313a20746f6b656e20616c7265616479206d696e7465640000000081525060200191505060405180910390fd5b611d6181600160008573ffffffffffffffffffffffffffffffffffffffff1673ffffffffffffffffffffffffffffffffffffffff16815260200190815260200160002061216590919063ffffffff16565b50611d788183600261217f9092919063ffffffff16565b50808273ffffffffffffffffffffffffffffffffffffffff16600073ffffffffffffffffffffffffffffffffffffffff167fddf252ad1be2c89b69c2b068fc378daa952ba7f163c4a11628f55a4df523b3ef60405160405180910390a45050565b600080600080611dec8660000186612237565b915091508160001c8160001c9350935050509250929050565b6000611e18846000018460001b846122d0565b60001c90509392505050565b6000611e32826000016123c6565b9050919050565b6000611e4482610e7c565b9050611e516000836117dd565b60006008600084815260200190815260200160002080546001816001161561010002031660029004905014611ea057600860008381526020019081526020016000206000611e9f9190612c36565b5b611ef182600160008473ffffffffffffffffffffffffffffffffffffffff1673ffffffffffffffffffffffffffffffffffffffff16815260200190815260200160002061214b90919063ffffffff16565b50611f068260026123d790919063ffffffff16565b5081600073ffffffffffffffffffffffffffffffffffffffff168273ffffffffffffffffffffffffffffffffffffffff167fddf252ad1be2c89b69c2b068fc378daa952ba7f163c4a11628f55a4df523b3ef60405160405180910390a45050565b611f7284848461199f565b611f7e848484846123f1565b611fd3576040517f08c379a0000000000000000000000000000000000000000000000000000000008152600401808060200182810382526032815260200180612cbe6032913960400191505060405180910390fd5b50505050565b60606000821415612021576040518060400160405280600181526020017f3000000000000000000000000000000000000000000000000000000000000000815250905061211b565b600082905060005b6000821461204b578080600101915050600a828161204357fe5b049150612029565b60608167ffffffffffffffff8111801561206457600080fd5b506040519080825280601f01601f1916602001820160405280156120975781602001600182028036833780820191505090505b50905060006001830390508593505b6000841461211357600a84816120b857fe5b0660300160f81b828280600190039350815181106120d257fe5b60200101907effffffffffffffffffffffffffffffffffffffffffffffffffffffffffffff1916908160001a905350600a848161210b57fe5b0493506120a6565b819450505050505b919050565b6000612132836000018360001b612603565b905092915050565b600081600001805490509050919050565b600061215d836000018360001b612626565b905092915050565b6000612177836000018360001b61270e565b905092915050565b60006121ab846000018460001b8473ffffffffffffffffffffffffffffffffffffffff1660001b61277e565b90509392505050565b600081836000018054905011612215576040517f08c379a0000000000000000000000000000000000000000000000000000000008152600401808060200182810382526022815260200180612c9c6022913960400191505060405180910390fd5b82600001828154811061222457fe5b9060005260206000200154905092915050565b60008082846000018054905011612299576040517f08c379a0000000000000000000000000000000000000000000000000000000008152600401808060200182810382526022815260200180612e146022913960400191505060405180910390fd5b60008460000184815481106122aa57fe5b906000526020600020906002020190508060000154816001015492509250509250929050565b60008084600101600085815260200190815260200160002054905060008114158390612397576040517f08c379a00000000000000000000000000000000000000000000000000000000081526004018080602001828103825283818151815260200191508051906020019080838360005b8381101561235c578082015181840152602081019050612341565b50505050905090810190601f1680156123895780820380516001836020036101000a031916815260200191505b509250505060405180910390fd5b508460000160018203815481106123aa57fe5b9060005260206000209060020201600101549150509392505050565b600081600001805490509050919050565b60006123e9836000018360001b61285a565b905092915050565b60006124128473ffffffffffffffffffffffffffffffffffffffff16612973565b61241f57600190506125fb565b606061258263150b7a0260e01b33888787604051602401808573ffffffffffffffffffffffffffffffffffffffff1681526020018473ffffffffffffffffffffffffffffffffffffffff16815260200183815260200180602001828103825283818151815260200191508051906020019080838360005b838110156124b1578082015181840152602081019050612496565b50505050905090810190601f1680156124de5780820380516001836020036101000a031916815260200191505b5095505050505050604051602081830303815290604052907bffffffffffffffffffffffffffffffffffffffffffffffffffffffff19166020820180517bffffffffffffffffffffffffffffffffffffffffffffffffffffffff8381831617835250505050604051806060016040528060328152602001612cbe603291398773ffffffffffffffffffffffffffffffffffffffff166129869092919063ffffffff16565b9050600081806020019051602081101561259b57600080fd5b8101908080519060200190929190505050905063150b7a0260e01b7bffffffffffffffffffffffffffffffffffffffffffffffffffffffff1916817bffffffffffffffffffffffffffffffffffffffffffffffffffffffff191614925050505b949350505050565b600080836001016000848152602001908152602001600020541415905092915050565b60008083600101600084815260200190815260200160002054905060008114612702576000600182039050600060018660000180549050039050600086600001828154811061267157fe5b906000526020600020015490508087600001848154811061268e57fe5b90600052602060002001819055506001830187600101600083815260200190815260200160002081905550866000018054806126c657fe5b60019003818190600052602060002001600090559055866001016000878152602001908152602001600020600090556001945050505050612708565b60009150505b92915050565b600061271a838361299e565b612773578260000182908060018154018082558091505060019003906000526020600020016000909190919091505582600001805490508360010160008481526020019081526020016000208190555060019050612778565b600090505b92915050565b600080846001016000858152602001908152602001600020549050600081141561282557846000016040518060400160405280868152602001858152509080600181540180825580915050600190039060005260206000209060020201600090919091909150600082015181600001556020820151816001015550508460000180549050856001016000868152602001908152602001600020819055506001915050612853565b8285600001600183038154811061283857fe5b90600052602060002090600202016001018190555060009150505b9392505050565b6000808360010160008481526020019081526020016000205490506000811461296757600060018203905060006001866000018054905003905060008660000182815481106128a557fe5b90600052602060002090600202019050808760000184815481106128c557fe5b906000526020600020906002020160008201548160000155600182015481600101559050506001830187600101600083600001548152602001908152602001600020819055508660000180548061291857fe5b600190038181906000526020600020906002020160008082016000905560018201600090555050905586600101600087815260200190815260200160002060009055600194505050505061296d565b60009150505b92915050565b600080823b905060008111915050919050565b606061299584846000856129c1565b90509392505050565b600080836001016000848152602001908152602001600020541415905092915050565b606082471015612a1c576040517f08c379a0000000000000000000000000000000000000000000000000000000008152600401808060200182810382526026815260200180612d376026913960400191505060405180910390fd5b612a2585612973565b612a97576040517f08c379a000000000000000000000000000000000000000000000000000000000815260040180806020018281038252601d8152602001807f416464726573733a2063616c6c20746f206e6f6e2d636f6e747261637400000081525060200191505060405180910390fd5b600060608673ffffffffffffffffffffffffffffffffffffffff1685876040518082805190602001908083835b60208310612ae75780518252602082019150602081019050602083039250612ac4565b6001836020036101000a03801982511681845116808217855250505050505090500191505060006040518083038185875af1925050503d8060008114612b49576040519150601f19603f3d011682016040523d82523d6000602084013e612b4e565b606091505b5091509150612b5e828286612b6a565b92505050949350505050565b60608315612b7a57829050612c2f565b600083511115612b8d5782518084602001fd5b816040517f08c379a00000000000000000000000000000000000000000000000000000000081526004018080602001828103825283818151815260200191508051906020019080838360005b83811015612bf4578082015181840152602081019050612bd9565b50505050905090810190601f168015612c215780820380516001836020036101000a031916815260200191505b509250505060405180910390fd5b9392505050565b50805460018160011615610100020316600290046000825580601f10612c5c5750612c7b565b601f016020900490600052602060002090810190612c7a9190612c7e565b5b50565b5b80821115612c97576000816000905550600101612c7f565b509056fe456e756d657261626c655365743a20696e646578206f7574206f6620626f756e64734552433732313a207472616e7366657220746f206e6f6e20455243373231526563656976657220696d706c656d656e7465724e454f4c4153544943533a204275726e6572206973206e6f74207468652063757276654552433732313a207472616e7366657220746f20746865207a65726f2061646472657373416464726573733a20696e73756666696369656e742062616c616e636520666f722063616c6c4552433732313a206f70657261746f7220717565727920666f72206e6f6e6578697374656e7420746f6b656e4552433732313a20617070726f76652063616c6c6572206973206e6f74206f776e6572206e6f7220617070726f76656420666f7220616c6c4552433732313a2062616c616e636520717565727920666f7220746865207a65726f20616464726573734552433732313a206f776e657220717565727920666f72206e6f6e6578697374656e7420746f6b656e456e756d657261626c654d61703a20696e646578206f7574206f6620626f756e64734e454f4c4153544943533a204e6f742074686520636f7272656374206f776e65724552433732313a20617070726f76656420717565727920666f72206e6f6e6578697374656e7420746f6b656e4e454f4c4153544943533a204d696e746572206973206e6f74207468652063757276654552433732313a207472616e73666572206f6620746f6b656e2074686174206973206e6f74206f776e4552433732314d657461646174613a2055524920717565727920666f72206e6f6e6578697374656e7420746f6b656e4552433732313a20617070726f76616c20746f2063757272656e74206f776e65724552433732313a207472616e736665722063616c6c6572206973206e6f74206f776e6572206e6f7220617070726f766564a2646970667358221220615730ee5758fc21fdd04d800dd10ee23949d1238b1fc51ab169283df7458bef64736f6c63430007030033",
  "linkReferences": {},
  "deployedLinkReferences": {}
}